{
  "contractName": "DEX",
  "abi": [
    {
      "anonymous": false,
      "inputs": [
        {
          "indexed": true,
          "internalType": "address",
          "name": "previousOwner",
          "type": "address"
        },
        {
          "indexed": true,
          "internalType": "address",
          "name": "newOwner",
          "type": "address"
        }
      ],
      "name": "OwnershipTransferred",
      "type": "event"
    },
    {
      "inputs": [
        {
          "internalType": "bytes32",
          "name": "ticker",
          "type": "bytes32"
        },
        {
          "internalType": "address",
          "name": "tokenAddress",
          "type": "address"
        }
      ],
      "name": "addToken",
      "outputs": [],
      "stateMutability": "nonpayable",
      "type": "function"
    },
    {
      "inputs": [
        {
          "internalType": "address",
          "name": "",
          "type": "address"
        },
        {
          "internalType": "bytes32",
          "name": "",
          "type": "bytes32"
        }
      ],
      "name": "balances",
      "outputs": [
        {
          "internalType": "uint256",
          "name": "",
          "type": "uint256"
        }
      ],
      "stateMutability": "view",
      "type": "function"
    },
    {
      "inputs": [
        {
          "internalType": "uint256",
          "name": "amount",
          "type": "uint256"
        },
        {
          "internalType": "bytes32",
          "name": "ticker",
          "type": "bytes32"
        }
      ],
      "name": "deposit",
      "outputs": [],
      "stateMutability": "nonpayable",
      "type": "function"
    },
    {
      "inputs": [
        {
          "internalType": "bytes32",
          "name": "",
          "type": "bytes32"
        },
        {
          "internalType": "uint256",
          "name": "",
          "type": "uint256"
        },
        {
          "internalType": "uint256",
          "name": "",
          "type": "uint256"
        }
      ],
      "name": "orderBook",
      "outputs": [
        {
          "internalType": "uint256",
          "name": "id",
          "type": "uint256"
        },
        {
          "internalType": "address",
          "name": "trader",
          "type": "address"
        },
        {
          "internalType": "enum DEX.Side",
          "name": "side",
          "type": "uint8"
        },
        {
          "internalType": "bytes32",
          "name": "ticker",
          "type": "bytes32"
        },
        {
          "internalType": "uint256",
          "name": "amount",
          "type": "uint256"
        },
        {
          "internalType": "uint256",
          "name": "price",
          "type": "uint256"
        }
      ],
      "stateMutability": "view",
      "type": "function"
    },
    {
      "inputs": [],
      "name": "owner",
      "outputs": [
        {
          "internalType": "address",
          "name": "",
          "type": "address"
        }
      ],
      "stateMutability": "view",
      "type": "function"
    },
    {
      "inputs": [],
      "name": "renounceOwnership",
      "outputs": [],
      "stateMutability": "nonpayable",
      "type": "function"
    },
    {
      "inputs": [
        {
          "internalType": "uint256",
          "name": "",
          "type": "uint256"
        }
      ],
      "name": "tokenList",
      "outputs": [
        {
          "internalType": "bytes32",
          "name": "",
          "type": "bytes32"
        }
      ],
      "stateMutability": "view",
      "type": "function"
    },
    {
      "inputs": [
        {
          "internalType": "bytes32",
          "name": "",
          "type": "bytes32"
        }
      ],
      "name": "tokenMapping",
      "outputs": [
        {
          "internalType": "bytes32",
          "name": "ticker",
          "type": "bytes32"
        },
        {
          "internalType": "address",
          "name": "tokenAddress",
          "type": "address"
        }
      ],
      "stateMutability": "view",
      "type": "function"
    },
    {
      "inputs": [
        {
          "internalType": "address",
          "name": "newOwner",
          "type": "address"
        }
      ],
      "name": "transferOwnership",
      "outputs": [],
      "stateMutability": "nonpayable",
      "type": "function"
    },
    {
      "inputs": [
        {
          "internalType": "uint256",
          "name": "amount",
          "type": "uint256"
        },
        {
          "internalType": "bytes32",
          "name": "ticker",
          "type": "bytes32"
        }
      ],
      "name": "withdraw",
      "outputs": [],
      "stateMutability": "nonpayable",
      "type": "function"
    },
    {
      "inputs": [
        {
          "internalType": "bytes32",
          "name": "ticker",
          "type": "bytes32"
        },
        {
          "internalType": "enum DEX.Side",
          "name": "side",
          "type": "uint8"
        }
      ],
      "name": "getOrderBook",
      "outputs": [
        {
          "components": [
            {
              "internalType": "uint256",
              "name": "id",
              "type": "uint256"
            },
            {
              "internalType": "address",
              "name": "trader",
              "type": "address"
            },
            {
              "internalType": "enum DEX.Side",
              "name": "side",
              "type": "uint8"
            },
            {
              "internalType": "bytes32",
              "name": "ticker",
              "type": "bytes32"
            },
            {
              "internalType": "uint256",
              "name": "amount",
              "type": "uint256"
            },
            {
              "internalType": "uint256",
              "name": "price",
              "type": "uint256"
            }
          ],
          "internalType": "struct DEX.Order[]",
          "name": "",
          "type": "tuple[]"
        }
      ],
      "stateMutability": "view",
      "type": "function"
    }
  ],
  "bytecode": "0x608060405234801561001057600080fd5b5061002d61002261003260201b60201c565b61003a60201b60201c565b6100fe565b600033905090565b60008060009054906101000a900473ffffffffffffffffffffffffffffffffffffffff169050816000806101000a81548173ffffffffffffffffffffffffffffffffffffffff021916908373ffffffffffffffffffffffffffffffffffffffff1602179055508173ffffffffffffffffffffffffffffffffffffffff168173ffffffffffffffffffffffffffffffffffffffff167f8be0079c531659141344cd1fd0a4f28419497f9722a3daafe3b4186f6b6457e060405160405180910390a35050565b6116278061010d6000396000f3fe608060405234801561001057600080fd5b50600436106100a95760003560e01c80639776aacf116100715780639776aacf1461016c5780639ead722214610188578063a8d2021a146101b8578063ba58ea68146101d4578063c9630cb014610204578063f2fde38b14610220576100a9565b80630bb431b6146100ae5780631f14df69146100e3578063667cb4ba14610113578063715018a6146101445780638da5cb5b1461014e575b600080fd5b6100c860048036038101906100c39190610ea8565b61023c565b6040516100da96959493929190611367565b60405180910390f35b6100fd60048036038101906100f89190610da2565b6102cf565b60405161010a919061134c565b60405180910390f35b61012d60048036038101906101289190610e07565b6102f4565b60405161013b9291906112a3565b60405180910390f35b61014c610338565b005b6101566103c0565b60405161016391906111eb565b60405180910390f35b61018660048036038101906101819190610e30565b6103e9565b005b6101a2600480360381019061019d9190610ef7565b610524565b6040516101af9190611288565b60405180910390f35b6101d260048036038101906101cd9190610f20565b610548565b005b6101ee60048036038101906101e99190610e6c565b6107b2565b6040516101fb9190611266565b60405180910390f35b61021e60048036038101906102199190610f20565b610973565b005b61023a60048036038101906102359190610d79565b610b4c565b005b6004602052826000526040600020602052816000526040600020818154811061026457600080fd5b906000526020600020906005020160009250925050508060000154908060010160009054906101000a900473ffffffffffffffffffffffffffffffffffffffff16908060010160149054906101000a900460ff16908060020154908060030154908060040154905086565b6003602052816000526040600020602052806000526040600020600091509150505481565b60016020528060005260406000206000915090508060000154908060010160009054906101000a900473ffffffffffffffffffffffffffffffffffffffff16905082565b610340610c44565b73ffffffffffffffffffffffffffffffffffffffff1661035e6103c0565b73ffffffffffffffffffffffffffffffffffffffff16146103b4576040517f08c379a00000000000000000000000000000000000000000000000000000000081526004016103ab9061130c565b60405180910390fd5b6103be6000610c4c565b565b60008060009054906101000a900473ffffffffffffffffffffffffffffffffffffffff16905090565b6103f1610c44565b73ffffffffffffffffffffffffffffffffffffffff1661040f6103c0565b73ffffffffffffffffffffffffffffffffffffffff1614610465576040517f08c379a000000000000000000000000000000000000000000000000000000000815260040161045c9061130c565b60405180910390fd5b60405180604001604052808381526020018273ffffffffffffffffffffffffffffffffffffffff16815250600160008481526020019081526020016000206000820151816000015560208201518160010160006101000a81548173ffffffffffffffffffffffffffffffffffffffff021916908373ffffffffffffffffffffffffffffffffffffffff16021790555090505060028290806001815401808255809150506001900390600052602060002001600090919091909150555050565b6002818154811061053457600080fd5b906000526020600020016000915090505481565b80600073ffffffffffffffffffffffffffffffffffffffff166001600083815260200190815260200160002060010160009054906101000a900473ffffffffffffffffffffffffffffffffffffffff1673ffffffffffffffffffffffffffffffffffffffff1614156105ef576040517f08c379a00000000000000000000000000000000000000000000000000000000081526004016105e69061132c565b60405180910390fd5b82600360003373ffffffffffffffffffffffffffffffffffffffff1673ffffffffffffffffffffffffffffffffffffffff1681526020019081526020016000206000848152602001908152602001600020541015610682576040517f08c379a0000000000000000000000000000000000000000000000000000000008152600401610679906112ec565b60405180910390fd5b82600360003373ffffffffffffffffffffffffffffffffffffffff1673ffffffffffffffffffffffffffffffffffffffff168152602001908152602001600020600084815260200190815260200160002060008282546106e29190611468565b925050819055506001600083815260200190815260200160002060010160009054906101000a900473ffffffffffffffffffffffffffffffffffffffff1673ffffffffffffffffffffffffffffffffffffffff1663a9059cbb33856040518363ffffffff1660e01b815260040161075a92919061123d565b602060405180830381600087803b15801561077457600080fd5b505af1158015610788573d6000803e3d6000fd5b505050506040513d601f19601f820116820180604052508101906107ac9190610dde565b50505050565b6060600460008481526020019081526020016000206000836001811115610802577f4e487b7100000000000000000000000000000000000000000000000000000000600052602160045260246000fd5b8152602001908152602001600020805480602002602001604051908101604052809291908181526020016000905b8282101561096757838290600052602060002090600502016040518060c0016040529081600082015481526020016001820160009054906101000a900473ffffffffffffffffffffffffffffffffffffffff1673ffffffffffffffffffffffffffffffffffffffff1673ffffffffffffffffffffffffffffffffffffffff1681526020016001820160149054906101000a900460ff1660018111156108fe577f4e487b7100000000000000000000000000000000000000000000000000000000600052602160045260246000fd5b6001811115610936577f4e487b7100000000000000000000000000000000000000000000000000000000600052602160045260246000fd5b8152602001600282015481526020016003820154815260200160048201548152505081526020019060010190610830565b50505050905092915050565b80600073ffffffffffffffffffffffffffffffffffffffff166001600083815260200190815260200160002060010160009054906101000a900473ffffffffffffffffffffffffffffffffffffffff1673ffffffffffffffffffffffffffffffffffffffff161415610a1a576040517f08c379a0000000000000000000000000000000000000000000000000000000008152600401610a119061132c565b60405180910390fd5b6001600083815260200190815260200160002060010160009054906101000a900473ffffffffffffffffffffffffffffffffffffffff1673ffffffffffffffffffffffffffffffffffffffff166323b872dd3330866040518463ffffffff1660e01b8152600401610a8d93929190611206565b602060405180830381600087803b158015610aa757600080fd5b505af1158015610abb573d6000803e3d6000fd5b505050506040513d601f19601f82011682018060405250810190610adf9190610dde565b5082600360003373ffffffffffffffffffffffffffffffffffffffff1673ffffffffffffffffffffffffffffffffffffffff16815260200190815260200160002060008481526020019081526020016000206000828254610b409190611412565b92505081905550505050565b610b54610c44565b73ffffffffffffffffffffffffffffffffffffffff16610b726103c0565b73ffffffffffffffffffffffffffffffffffffffff1614610bc8576040517f08c379a0000000000000000000000000000000000000000000000000000000008152600401610bbf9061130c565b60405180910390fd5b600073ffffffffffffffffffffffffffffffffffffffff168173ffffffffffffffffffffffffffffffffffffffff161415610c38576040517f08c379a0000000000000000000000000000000000000000000000000000000008152600401610c2f906112cc565b60405180910390fd5b610c4181610c4c565b50565b600033905090565b60008060009054906101000a900473ffffffffffffffffffffffffffffffffffffffff169050816000806101000a81548173ffffffffffffffffffffffffffffffffffffffff021916908373ffffffffffffffffffffffffffffffffffffffff1602179055508173ffffffffffffffffffffffffffffffffffffffff168173ffffffffffffffffffffffffffffffffffffffff167f8be0079c531659141344cd1fd0a4f28419497f9722a3daafe3b4186f6b6457e060405160405180910390a35050565b600081359050610d1f81611585565b92915050565b600081519050610d348161159c565b92915050565b600081359050610d49816115b3565b92915050565b600081359050610d5e816115ca565b92915050565b600081359050610d73816115da565b92915050565b600060208284031215610d8b57600080fd5b6000610d9984828501610d10565b91505092915050565b60008060408385031215610db557600080fd5b6000610dc385828601610d10565b9250506020610dd485828601610d3a565b9150509250929050565b600060208284031215610df057600080fd5b6000610dfe84828501610d25565b91505092915050565b600060208284031215610e1957600080fd5b6000610e2784828501610d3a565b91505092915050565b60008060408385031215610e4357600080fd5b6000610e5185828601610d3a565b9250506020610e6285828601610d10565b9150509250929050565b60008060408385031215610e7f57600080fd5b6000610e8d85828601610d3a565b9250506020610e9e85828601610d4f565b9150509250929050565b600080600060608486031215610ebd57600080fd5b6000610ecb86828701610d3a565b9350506020610edc86828701610d64565b9250506040610eed86828701610d64565b9150509250925092565b600060208284031215610f0957600080fd5b6000610f1784828501610d64565b91505092915050565b60008060408385031215610f3357600080fd5b6000610f4185828601610d64565b9250506020610f5285828601610d3a565b9150509250929050565b6000610f688383611152565b60c08301905092915050565b610f7d8161149c565b82525050565b610f8c8161149c565b82525050565b6000610f9d826113d8565b610fa781856113f0565b9350610fb2836113c8565b8060005b83811015610fe3578151610fca8882610f5c565b9750610fd5836113e3565b925050600181019050610fb6565b5085935050505092915050565b610ff9816114ba565b82525050565b611008816114ba565b82525050565b61101781611501565b82525050565b61102681611501565b82525050565b6000611039602683611401565b91507f4f776e61626c653a206e6577206f776e657220697320746865207a65726f206160008301527f64647265737300000000000000000000000000000000000000000000000000006020830152604082019050919050565b600061109f601483611401565b91507f496e737566666963656e742062616c616e63652e0000000000000000000000006000830152602082019050919050565b60006110df602083611401565b91507f4f776e61626c653a2063616c6c6572206973206e6f7420746865206f776e65726000830152602082019050919050565b600061111f601383611401565b91507f546f6b656e206e6f7420737570706f72746564000000000000000000000000006000830152602082019050919050565b60c08201600082015161116860008501826111cd565b50602082015161117b6020850182610f74565b50604082015161118e604085018261100e565b5060608201516111a16060850182610ff0565b5060808201516111b460808501826111cd565b5060a08201516111c760a08501826111cd565b50505050565b6111d6816114f7565b82525050565b6111e5816114f7565b82525050565b60006020820190506112006000830184610f83565b92915050565b600060608201905061121b6000830186610f83565b6112286020830185610f83565b61123560408301846111dc565b949350505050565b60006040820190506112526000830185610f83565b61125f60208301846111dc565b9392505050565b600060208201905081810360008301526112808184610f92565b905092915050565b600060208201905061129d6000830184610fff565b92915050565b60006040820190506112b86000830185610fff565b6112c56020830184610f83565b9392505050565b600060208201905081810360008301526112e58161102c565b9050919050565b6000602082019050818103600083015261130581611092565b9050919050565b60006020820190508181036000830152611325816110d2565b9050919050565b6000602082019050818103600083015261134581611112565b9050919050565b600060208201905061136160008301846111dc565b92915050565b600060c08201905061137c60008301896111dc565b6113896020830188610f83565b611396604083018761101d565b6113a36060830186610fff565b6113b060808301856111dc565b6113bd60a08301846111dc565b979650505050505050565b6000819050602082019050919050565b600081519050919050565b6000602082019050919050565b600082825260208201905092915050565b600082825260208201905092915050565b600061141d826114f7565b9150611428836114f7565b9250827fffffffffffffffffffffffffffffffffffffffffffffffffffffffffffffffff0382111561145d5761145c611513565b5b828201905092915050565b6000611473826114f7565b915061147e836114f7565b92508282101561149157611490611513565b5b828203905092915050565b60006114a7826114d7565b9050919050565b60008115159050919050565b6000819050919050565b60008190506114d282611571565b919050565b600073ffffffffffffffffffffffffffffffffffffffff82169050919050565b6000819050919050565b600061150c826114c4565b9050919050565b7f4e487b7100000000000000000000000000000000000000000000000000000000600052601160045260246000fd5b7f4e487b7100000000000000000000000000000000000000000000000000000000600052602160045260246000fd5b6002811061158257611581611542565b5b50565b61158e8161149c565b811461159957600080fd5b50565b6115a5816114ae565b81146115b057600080fd5b50565b6115bc816114ba565b81146115c757600080fd5b50565b600281106115d757600080fd5b50565b6115e3816114f7565b81146115ee57600080fd5b5056fea2646970667358221220971db95bb67ff4ebd1115d8f0b37efd2c9f7e935b947bdfbfd1c18a0c601b59864736f6c63430008000033",
  "immutableReferences": {},
  "source": "// TOPIC: Project - Building a Decentralized Exchange\r\n// Ethereum Smart Contract Programming 201 final project\r\n\r\npragma solidity 0.8.0;\r\n    // allows us to return arrays\r\npragma experimental ABIEncoderV2;\r\nimport \"./wallet.sol\";\r\n\r\n\r\n\r\n    // inheriting wallet functionality into DEX\r\ncontract DEX is Wallet{\r\n\r\n        // custom variable to replace boolian for BUY/SELL order type\r\n    enum Side{\r\n        BUY,\r\n        SELL\r\n    }\r\n\r\n        // struct to hold order information and type\r\n    struct Order {\r\n        uint id;\r\n        address trader;\r\n        Side side;\r\n        bytes32 ticker;\r\n        uint amount;\r\n        uint price;\r\n    }\r\n\r\n        // mapps each token ticker to a seperate buy and sell orderbook for each supported token. Lets us seperate Buy orders from Sell orders\r\n    mapping(bytes32 => mapping(uint => Order[])) public orderBook;\r\n\r\n        // return and view order book\r\n    function getOrderBook(bytes32 ticker, Side side) view public returns(Order[] memory){\r\n        return orderBook[ticker][uint(side)];\r\n    }\r\n\r\n        //\r\n    //function createLimitOrder() {}\r\n\r\n\r\n\r\n}",
  "sourcePath": "C:\\Users\\Dustin Gearhart\\Documents\\Ivan_On_Tech_Academy\\Solidity\\Truffle_Projects\\DEX_Project\\contracts\\DEX.sol",
  "compiler": {
    "name": "solc",
    "version": "0.8.0+commit.c7dfd78e.Emscripten.clang"
  },
  "schemaVersion": "3.4.2",
  "updatedAt": "2021-08-30T02:22:29.038Z",
  "devdoc": {
    "kind": "dev",
    "methods": {
      "owner()": {
        "details": "Returns the address of the current owner."
      },
      "renounceOwnership()": {
        "details": "Leaves the contract without owner. It will not be possible to call `onlyOwner` functions anymore. Can only be called by the current owner. NOTE: Renouncing ownership will leave the contract without an owner, thereby removing any functionality that is only available to the owner."
      },
      "transferOwnership(address)": {
        "details": "Transfers ownership of the contract to a new account (`newOwner`). Can only be called by the current owner."
      }
    },
    "version": 1
  },
  "userdoc": {
    "kind": "user",
    "methods": {},
    "version": 1
  }
}